:020000040800F2
:1000000000800120C11E0008F51E0008F51E000832
:10001000F51E0008F51E0008F51E0008000000008F
:10002000000000000000000000000000F51E0008B5
:10003000F51E000800000000F51E0008F51E00086F
:10004000F51E0008F51E0008F51E0008F51E000844
:10005000F51E0008F51E0008F51E0008F51E000834
:10006000F51E0008F51E0008F51E0008F51E000824
:10007000F51E0008F51E0008F51E0008F51E000814
:10008000F51E0008F51E0008F51E0008000000001F
:10009000000000000000000000000000F51E000845
:1000A000F51E0008F51E0008F51E0008F51E0008E4
:1000B000F51E0008F51E0008F51E0008F51E0008D4
:1000C000F51E0008F51E0008F51E0008F51E0008C4
:1000D000F51E0008F51E0008F51E000800000000CF
:1000E000F51E0008F51E0008F51E000800000000BF
:1000F000000000000000000000000000F51E0008E5
:1001000000000000F51E0008F51E0008F51E00089E
:1001100000000000000000000000000000000000DF
:10012000F51E0008F51E0008F51E0008F51E000863
:10013000F51E0008000000000000000000000000A4
:10014000000000000000000000000000F51E000894
:10015000F51E0008F51E0008F51E0008F51E000833
:10016000F51E0008F51E0008000000000000000059
:10017000000000000000000000000000000000007F
:1001800000000000F51E0008000000000000000054
:10019000F51E000808B50548054B1B1A062B00D8AC
:1001A00008BD044B002BFBD09847F9E7300A00202C
:1001B000330A00200000000008B50748074B1B1A4F
:1001C0009B1003EBD373591000D108BD044A002AD9
:1001D000FBD09047F9E700BF300A0020300A00202A
:1001E0000000000010B5064C237843B9FFF7D2FF9A
:1001F000044B13B10448AFF300800123237010BDFA
:10020000300A00200000000014A6000808B5074BC3
:100210001BB107480749AFF300800748036813B1D3
:10022000064B03B19847BDE80840C5E70000000051
:1002300014A60008340A00202C0A00200000000048
:10024000134B002B08BF114B9D46A3F5803A0021AC
:100250008B460F461148124A121A04F0F3FD0D4B5B
:10026000002B00D098470C4B002B00D09847002063
:10027000002104000D000B4804F01EFB04F0C8FC34
:100280002000290001F092FC04F01CFB0000080093
:1002900000800120000000009F1B0008300A0020A1
:1002A0000C120020914B000838B5042001F0C6FC68
:1002B000054600F0F9F9102001F0C0FC044600F0FA
:1002C00023F8236820461B68294698472368204660
:1002D0005B6898472B6828461B6998472368204627
:1002E0009B689847014804F02DF8F3E7CDCCCC3D4E
:1002F000C1607047014B00221A6070474C0A002011
:10030000A0F10400FFF7F6BF054A02F10801016001
:1003100002F11C012832826000224160C2607047F5
:10032000E899000808B5C06803681B68984708BDCD
:1003300008B5C06803685B68984708BD08B5C06821
:1003400003689B68984708BD08B5C0680368DB6907
:10035000984708BD08B5C06803681B6A984708BD80
:1003600008B5C06803685B6A984708BD08B5C068EF
:1003700003689B6A984708BD38B52B492B4B096821
:100380001A688A4204461D464DDC0132782A1A60FA
:100390000BDDFFF7E5FF42F20F75A8421ADD20469C
:1003A000FFF7E4FFA84226DC14E004D1FFF7CCFFFE
:1003B0002046FFF7CFFF2B68632B04DD2046BDE806
:1003C0003840FFF7B5BF4F2B02DD204618490AE041
:1003D0003B2B04DD2046BDE83840FFF7A3BF272BA9
:1003E00005DD14492046BDE83840FFF7A7BF153B9F
:1003F000122BEFD838BD2046FFF79AFF2046FFF7B3
:10040000AFFF43F69725A8420DDD2046FFF7AEFF6C
:10041000A84200DC38BD2046FFF79CFF2046BDE81F
:100420003840FFF791BF38BD9C0100204C0A0020E6
:100430002143050045230100A0F10800FFF79CBF00
:10044000436C013343647047014B00225A64704788
:10045000580A0020014B00225A647047A00A00206D
:10046000014B586C704700BF580A0020014B586C74
:10047000704700BFA00A0020034610B107C983E8F7
:1004800007007047704708B542680368806812F03B
:10049000010F4FEA620218BF8158104418BFCB58B1
:1004A000984708BD38B5B0F90030013304460D4611
:1004B00004D105480549342203F0CCFEE3686268A4
:1004C00005B912041A6038BD609A0008789A0008CD
:1004D00010B50F4C204600F0E2F94FF07E5003F0CB
:1004E00031FF204600F024FA07A3D3E9002307F0E8
:1004F000EDFE084BBDE81040C3E900014FF07E500F
:1005000003F020BFAFF30080F8C1631ADCA54C40B4
:10051000280B0020500A002008B50B4800F008FA0C
:1005200007A3D3E9002307F0D1FE084BD3E900234A
:1005300007F018FD03F01AFF08F062F908BD00BFCC
:10054000F8C1631ADCA54C40280B0020500A00209B
:1005500038B505460C4603F097FE2846214601F0C3
:1005600087FABDE8384003F0B9BE000008B5094875
:100570000021FFF797FF08480121FFF793FF074885
:100580004FF4C871FFF7E4FF05484FF4C871FFF757
:10059000DFFF08BDA00B0020180B0020E80A002098
:1005A000000B002008B509480121FFF77BFF084830
:1005B0000021FFF777FF07484FF4C871FFF7C8FF26
:1005C00005484FF4C871FFF7C3FF08BDA00B00201A
:1005D000180B0020E80A0020000B002008B5124B81
:1005E000124899420ED10021FFF75CFF104800210C
:1005F000FFF758FF0F484FF4C871FFF7A9FF0E48E7
:10060000C8210DE00121FFF74DFF09480121FFF747
:1006100049FF0848C821FFF79BFF07484FF4C871FE
:10062000FFF796FF08BD00BF45230100A00B002087
:10063000180B0020E80A0020000B002010B5094824
:100640000C460021FFF72EFF07480121FFF72AFF84
:1006500021460648FFF77CFF05482146FFF778FF53
:1006600010BD00BFA00B0020180B0020E80A0020DE
:10067000000B002008B508480021FFF713FF0748CA
:100680000121FFF70FFF06480021FFF761FF054832
:100690000021FFF75DFF08BDA00B0020180B002014
:1006A000E80A0020000B002070B5144B144E0360C4
:1006B000144D044603F0E8FD30464FF47A7101F022
:1006C00077F803F00BFE03F0DFFD28464FF47A7154
:1006D00001F06EF803F002FE30460021FFF738FF0C
:1006E00028460021FFF734FF07480021FFF7DAFE14
:1006F00006480021FFF7D6FE204670BD309A00085C
:10070000E80A0020000B0020A00B0020180B00209E
:10071000C36810B504460BB19B689847204610BDCE
:100720001FB5044603F03AFC03F0AEFD094B0093FD
:100730000023694601932046074B0393029403F07C
:1007400065FC6846FFF7E4FF03F0C8FD204604B0EF
:1007500010BD00BF41040008189A000870B5244C71
:10076000244E03F091FD10252348272101F0B8F80D
:1007700003F0B4FD2A462046002104F063FB204626
:1007800008211E4C03F0D0FC03F07EFD1C4816210E
:1007900001F0A6F803F0A2FD2A462046194D0021DB
:1007A00004F050FB20460921174C03F0BDFC2846FD
:1007B0001921182200F082F8224628461349144DC8
:1007C00001F030FA30461E21FFF7AAFF3046114EE5
:1007D0002246294601F026FA30461D21FFF7A0FFE8
:1007E000304629462246BDE8704001F01BBA00BFE2
:1007F000A00B0020580A0020E80A0020180B002057
:10080000000B0020280B002098010020250800087C
:1008100019080008A00A002010B5044603F090FB58
:10082000204610BD034610B5044653F8040B984209
:1008300002D163689B689847204610BD1FB500230E
:1008400000938DF80C308DF80D1003AA3D21022382
:10085000006803F0FDFA05B05DF804FB1FB5012345
:100860008DF80C30002300938DF80D1003AA3D2164
:100870000223006803F0ECFA05B05DF804FB1FB535
:100880000022009202238DF80D1003AA3D2100687A
:100890008DF80C3003F0DCFA05B05DF804FB10B500
:1008A000D0210446FFF7CAFF20462021FFF7D6FFDC
:1008B00020460021BDE81040FFF7E1BF10B5044617
:1008C0000430206008B103F06BFA2046FFF7E7FF21
:1008D000204610BD30B587B006AA032302F80C3DB0
:1008E000012300930C4605463D21006803F0B0FA51
:1008F0000023009304AA28683D21062303F0C9FAC7
:100900009DF810209DF8113043EA022323809DF8C2
:1009100012209DF8133043EA022363809DF81420CF
:100920009DF8153043EA0223A38007B030BD0000D4
:1009300037B56946FFF7CEFFBDF9020007F060FC4E
:100940000446BDF900000D4607F05AFC02460B466E
:100950002046294603F00EFD0022002304460D46E2
:1009600007F026FF40B1204629460FA3D3E9002314
:1009700007F0FAFA04460D46204629460AA3D3E9B1
:10098000002307F033FF40B12046294606A3D3E9F0
:10099000002307F0E7FA04460D462046294603B037
:1009A00030BD00BFAFF30080182D4454FB21194027
:1009B00010B50C4CA268A468B4F1006F13460CD1BA
:1009C000131F094A53F8044F42F8044F074CA24240
:1009D000F8D1044A4FF000539360103043F82010D0
:1009E00010BD00BF00ED00E0FCFFFF1F90010020E4
:1009F000431C10B5044604D106480749272203F0DA
:100A000029FC2046002100F0F5FD04F00F04012030
:100A1000A04010BD659A00083C9D000870B50446D2
:100A20004B1C0E4621800DD0C1F3031000F072FD67
:100A300005463046FFF7DCFF05F11003183560600E
:100A4000A360E56070BDB0F9000000F001BE0000D9
:100A500038B5B0F90030013305460C4604D10748DB
:100A60000749462203F0F6FB012CB5F900000CBF44
:100A700021460021BDE8384000F0BCBD609A000866
:100A80003C9D00082DE9F041154E4C2404FB006408
:100A9000074688460434002545451ED04C237B4339
:100AA0000121F35801FA05F21A4213D00D4A236BC3
:100AB0005069D4F818E001FA03F303420AD05361F5
:100AC000206838B1DEF810201342074B08BF02211E
:100AD0001B68984701350434DEE7BDE8F08100BFAC
:100AE000B00B0020003C0140C40D0020002001217B
:100AF000FFF7C8BF01200146FFF7C4BF0220012154
:100B0000FFF7C0BF03200121FFF7BCBF0420012174
:100B1000FFF7B8BF05200146FFF7B4BF0620014626
:100B2000FFF7B0BF2DE9F74F9B464B1C81460D46A2
:100B3000019266D001F00F0808F1FF33C1F30310F2
:100B40000E2B09D8DFE803F00C1014181C1C1C1C19
:100B50001C202020202020002C4F0024062616E0F8
:100B60002B4F0124072612E02A4F022408260EE00C
:100B7000294F032409260AE0284F04240A2606E008
:100B8000274F0524172602E0264F0624282600F0CA
:100B9000C1FC4FFA86FA00900721284600F02AFD92
:100BA00050463946FFF704FF06F01F01012202FA02
:100BB00001F04FEA5A131C4941F823001B4B89F8F6
:100BC000006053F828601A49A9F80C504C2363437D
:100BD00002FA06F5CA58C9F804402A430020C9F8A9
:100BE0000800CA50132303FB046401EB8403009A3A
:100BF000DA61C3F804B0C3F834800E4B019A1A606E
:100C000000E0084603B0BDE8F08F00BFED0A000821
:100C1000F50A0008FD0A0008050B00080D0B000886
:100C2000150B00081D0B000800E100E0949D000872
:100C3000B00B0020C40D0020F8B54468174A0546E3
:100C4000808900F00F03C0F3031000F58010012627
:100C5000803006FA03F1800252F8237001F07CFA2A
:100C60004C210F4AB5F90C006143BE40535823EAAA
:100C70000606132303FB0473565002EB8301002482
:100C80004C60991D0C3302EB810102EB83034C6035
:100C90005C60214600F000FDAC60F8BD949D00084A
:100CA000B00B0020A2B1012905D18368023B012BC2
:100CB00008D981601EE0022921D1836823F0020354
:100CC000012B03D103238360082119E0816007E031
:100CD000012907D18368023B012B0DD802238360D1
:100CE00007210DE002290AD1836823F00203012BBA
:100CF00002D18360062103E08260114600E00C21EE
:100D0000B0F90C0000F0C8BC38B5144B1A68116972
:100D100011F0020F1C4607D0D368980704D56FF076
:100D20000203136103F06CFA23681A69510714D5A2
:100D3000DA68520711D56FF00402094D1A615C6A36
:100D40002B68E31AB3F57A7F07D301F0EFF8034B72
:100D50001B6804F57A729A632C6038BDCC110020B0
:100D6000C80D002030B589B003A801A902F062FBCC
:100D700002F030FB00230293234B01901A6C234CAA
:100D800042F008021A641A6C02F008020292029AF7
:100D90001A6A42F008021A621A6A22F008021A62FB
:100DA000069AA3F50B3323604FF0FF33E360184B33
:100DB00002B14000B0FBF3F0013800256060134839
:100DC0002561A560656102F017FC32201149FFF72B
:100DD000EFFD114B0D484FF480225A60294602F076
:100DE000DBFC0421094802F0D7FC23680B4A596A4E
:100DF0001160126802F57A729A63DA68284642F046
:100E00000402DA6009B030BD00380240CC11002085
:100E100040420F00090D000800E100E0C80D00206D
:100E200010B5054B9C68204601F01AFC2046BDE831
:100E3000104001F03DBF00BFCC0D002010B5054BA8
:100E40005C68204601F00CFC2046BDE8104001F033
:100E50002FBF00BFCC0D002010B5054B1C682046ED
:100E600001F0FEFB2046BDE8104001F021BF00BFAD
:100E7000CC0D00202DE9F84390F8647090F865607F
:100E80007DB274B2804689462846FFF791FD4946F7
:100E90002046FFF78DFD98F86830002B0CBF022329
:100EA0000123002DA8BF05F160424FEA0313AFBF35
:100EB00002F56142144A07F00F00D9B2AABFD9B2B5
:100EC000115482F80013002CADBF04F1604206F00B
:100ED0000F010D4A02F56142B5BFDBB2DBB25354DC
:100EE00082F800336D090123084A07F01F076409DF
:100EF00006F01F0603FA07F1B34042F8251042F846
:100F00002430BDE8F88300BF14ED00E000E100E00C
:100F100010B590F8654090F9640001F027F860B2D0
:100F2000BDE8104001F022B890F85830012B00F1D4
:100F3000040107D004D3022B054818BF002002E0AB
:100F4000044800E00448054A42F82310704700BFF7
:100F5000210E0008590E00083D0E0008CC0D00209F
:100F6000194A03681268C16DB2FBF1F114224360A3
:100F70004A439969890701D5013AFAD1134A934244
:100F800008D1134B1A6A42F400121A621A6A22F448
:100F9000001216E00F4A934208D10D4B1A6A42F430
:100FA00080021A621A6A22F480020AE00A4A934214
:100FB00008D1074B1A6A42F400021A621A6A22F434
:100FC00000021A62704700BFA401002000540040D4
:100FD0000038024000580040005C0040F8B5124B59
:100FE000C26D1B68B3FBF2F21423534342680446FC
:100FF0000E46071D9169890701D5013BFAD10025ED
:101000002946A660E560384601F065FF4FF480434D
:101010006361A561256265622561E561384601F07D
:1010200041F9E665F8BD00BFA4010020F0B5044613
:1010300085B00E4608465649154603F0B5F85549A1
:101040000746284603F0B0F8A4F860600146A4F80B
:101050006250384603F08AF82060013004D14E48CF
:101060004E49FC2203F0F6F822684D4B9A4223D1F8
:101070000023019384F858304A4B45491A6C42F4D6
:1010800000121A641B6C03F4001301933046019B99
:1010900003F04EF828463F4903F04AF83046012154
:1010A00000F0D6FA2846012100F0D2FA1F2384F876
:1010B0006430202384F8653022683B4B9A4224D167
:1010C000002302930127374B84F858701A6C30497B
:1010D00042F480021A641B6C03F4800302933046CE
:1010E000029B03F025F828462A4903F021F83046F0
:1010F000394600F0ADFA2846394600F0A9FA212316
:1011000084F86430222384F865302268274B9A42A1
:1011100024D1022384F8583000230393214B1C4927
:101120001A6C42F400021A641B6C03F4000303936C
:101130003046039B02F0FCFF2846164902F0F8FFF8
:101140003046012100F084FA2846012100F080FA9F
:10115000482384F86430492384F86530E36D0BB983
:10116000134BE3652046FFF7FBFE2046E16DFFF7DA
:1011700035FF002384F8693084F8683084F86A30D9
:1011800084F86730042384F8663005B0F0BD00BFF2
:10119000C09A0008B89C0008D49D0008EE9D000885
:1011A000005400400038024000580040005C0040FD
:1011B000A08601002DE9F34116460446089A00F185
:1011C00004081D468FB203B15EB94046394601227C
:1011D0000A2301F0ABF900280CBF00206FF00100DA
:1011E0004EE090F86630042B01D0082B04D10AB1F0
:1011F000042308E0012306E0013B012B05D80AB1D6
:10120000082300E0022384F86630002384F8673066
:101210002046FFF789FE01462046FFF72BFE94F893
:1012200066300093404639463246ABB201F004F9CD
:1012300010BB154BE66D1B68B3FBF6F61E235E4331
:1012400005FB066694F8673013F01E0F05D1013ECA
:1012500003D0012003F06BF8F4E72046FFF758FEB7
:101260001EB194F86730082B09D02046B4F96010FD
:10127000B4F96220FFF7DAFE6FF0010000E02846C3
:1012800002B0BDE8F08100BFA40100202DE9F341C8
:1012900016460446089A00F104081D468FB203B1B1
:1012A0005EB94046394601220A2301F03FF9002881
:1012B0000CBF00206FF001004EE090F86630042B68
:1012C00001D0082B04D10AB1042308E0012306E071
:1012D000013B012B05D80AB1082300E0022384F862
:1012E0006630002384F867302046FFF71DFE014674
:1012F0002046FFF7BFFD94F866300093404639461C
:101300003246ABB201F03CF810BB154BE66D1B68E2
:10131000B3FBF6F61E235E4305FB066694F86730C2
:1013200013F01E0F05D1013E03D0012002F0FFFF94
:10133000F4E72046FFF7ECFD1EB194F86730082B68
:1013400009D02046B4F96010B4F96220FFF76EFEB0
:101350006FF0010000E0284602B0BDE8F08100BF58
:10136000A4010020436F07B5ABB1D0F8843093B12E
:1013700090F86C200AB1082200E0022280F8622076
:1013800090F86220B0F868100092D0F880209BB2EC
:1013900001F052F802E0082380F8633003B05DF8F2
:1013A00004FB082380F86330704738B5051D0446F8
:1013B0000261284600F076FF2046FFF7B5FD0146A2
:1013C0002046FFF757FD2846BDE8384001F098B8A1
:1013D00070B590F864500446061F05B1C568B4F9AD
:1013E0005C10B4F95E203046FFF720FE00210B466A
:1013F00030462A46FFF7D9FF022384F8633070BDD8
:1014000019B9012380F865307047012908BF80F8B9
:1014100066107047002380F865307047002380F81D
:101420006630704701F06CB810B5044650F80429D6
:10143000536823F4E0635360FFF76AFD022384F8E6
:10144000633010BD1FB502F01FFF6846052102F092
:101450006BFEBDF90030013304D10E480E49342231
:1014600002F0F8FE039B019A1A60962002F078FFC2
:10147000BDF90030013304D106480749342202F097
:10148000E9FE019B039A1B041360962002F068FF9B
:10149000DFE700BF609A0008359E000830B50546BA
:1014A000A1B00C4602F0F0FE29466846224603F041
:1014B0009DFD051E03DC02F011FF21B030BD094B7C
:1014C0001B6823B908480221032200F013FC002402
:1014D0001DF804100448013400F0E0FCAC42F7D1E0
:1014E000E9E700BF241100207C1100200FB407B5EC
:1014F00004A951F8040B0191FFF7D0FF03B05DF888
:1015000004EB04B0704708B502F0DCFABDE808400F
:1015100000F0F2BC7FB50023072853D8DFE800F0C5
:1015200004111E2B3852524500932A4B2A481A6B3D
:1015300042F001021A631B6B03F001030093009B4E
:1015400044E00193234B25481A6B42F002021A63D0
:101550001B6B03F002030193019B37E002931D4BC9
:101560001F481A6B42F004021A631B6B03F004035A
:101570000293029B2AE00393164B1A481A6B42F01F
:1015800008021A631B6B03F008030393039B1DE01F
:101590000493104B14481A6B42F010021A631B6B31
:1015A00003F010030493049B10E00593094B0F48CC
:1015B0001A6B42F080021A631B6B03F080030593E1
:1015C000059B03E00A4802F0A7FE002007B05DF883
:1015D00004FB00BF0038024000000240000402404B
:1015E00000080240000C024000100240001C0240B3
:1015F000A79E000830B5431C87B005460C4604D1B1
:1016000010481149812202F025FEC5F30310FFF7AF
:1016100081FF05F00F050123AB4004F00F02019399
:101620000A4B53F822300293C4F302130393C4F31A
:10163000C314032301A90493059400F0BBFC07B075
:1016400030BD00BF659A0008C89E0008209F0008B2
:10165000431C70B506460C4604D10D480D49A62220
:1016600002F0F8FDC6F30310FFF754FF06F00F0574
:10167000C1686B0003229A4021EA0202032CC26077
:10168000C26828BF00249C401443C46070BD00BFE2
:10169000659A0008C89E000838B50546C0F30310D7
:1016A0000C46FFF737FF05F00F02C3685200D34026
:1016B00003F0030304F00F01284641EA0311BDE8DB
:1016C0003840FFF797BF000030B507EE101A284BDF
:1016D00002681A60B5EEC07AF1EE10FA89B00546DC
:1016E00009D4F7EE007AB4EE677AF1EE10FAC8BFCB
:1016F000B0EE677A01E09FED1F7AD5ED037AF8EE40
:10170000677A602267EE877A0192FCEEE77AAA6830
:10171000C5ED047A17EE903AB3FBF2F3029300237F
:10172000039304930593069307932B7D013B032BAF
:101730001CD8DFE803F008020406042404E00824AF
:1017400002E00C2400E00024094801A9224601F02F
:10175000B3FF10B1084802F0DFFD6B7D044821465D
:1017600013B102F051F801E002F02CF809B030BDDD
:10177000E00D002000000000549F0008C368ABB1DA
:1017800090ED047A07EE903AB8EE477AF8EE677A71
:10179000C7EE277AB7EE007AF4EEC77AF1EE10FAC8
:1017A000D4BF17EE900A17EE100A7047002070475A
:1017B0002DE9F041D0F80080414C86B005460E4638
:1017C000C4F80080FFF7DAFFD8F8202041F21113A7
:1017D000134007465BB9D8F8202040F24443134039
:1017E0002BB9D8F8003023F00103C8F8003001A865
:1017F000694601F01FFE2B68324A93421BD00BD87A
:10180000A2F50062934216D002F58062934212D094
:10181000B3F1804F51D10EE02B4A934210D002D841
:10182000A2F5804204E0294A934209D002F5806281
:10183000934205D041E001F0CDFD0090049803E013
:1018400001F0E0FD00900598009A2149B6F5803F2F
:10185000ACBF4FF4FA730123AB60AB6800B1520028
:10186000B2FBF1F212FB03F39BB2013B63606368CE
:10187000B3F5803F02D3174802F04EFDAA68731EED
:10188000B3FBF2F3B3F5803FE36002D3124802F0FA
:1018900043FD00230A482361A36001F0C7FE10B195
:1018A0000E4802F039FDEE6028463946FFF70CFF7E
:1018B0002268136843F00103136006B0BDE8F081AD
:1018C000E00D0020000C00400040014000440140B9
:1018D00040420F006B9F0008879F0008549F00083C
:1018E00070B5044688B008460E46554902F05CFCC7
:1018F0002060013004D1534853492D2202F0AAFC44
:1019000030464F4902F06CFC431C054604D14F4859
:101910004D49312202F09EFCC5F3C4234C4A237585
:101920002368C5F30045934265754FF000020BD163
:101930000092484A516C41F001015164526C02F02E
:1019400001020092009A3BE0B3F1804F0BD101926B
:10195000404A116C41F001011164126C02F0010265
:101960000192019A2CE03C498B420BD10292394AF8
:10197000116C41F002011164126C02F00202029239
:10198000029A2DE035498B420BD10392314A116CFA
:1019900041F004011164126C02F004020392039AF4
:1019A0002EE02F498B420BD12A4B04921A6C42F045
:1019B00008021A641B6C03F008030493049B2EE0D6
:1019C000284A93420CD100230593224B5A6C42F4CF
:1019D00080325A645B6C03F480330593059B1EE0F0
:1019E000214A93420CD1002306931A4B5A6C42F4BD
:1019F00000325A645B6C03F400330693069B0EE0DE
:101A00001A4A93420BD100230793124B5A6C42F4AB
:101A100080225A645B6C03F480230793079B084978
:101A2000304602F085FB0023E36023610123A6809A
:101A3000A360204644F62061FFF7BAFE08B070BDEF
:101A4000509B0008A09F0008B89F000811A0000844
:101A5000000001400038024000040040000800403F
:101A6000000C00400040014000440140004801409B
:101A700007EE901AB8EEE77AD0ED037AF8EE677ABF
:101A8000C7EE277A17EE901AFFF71EBE08B5084B6F
:101A90001B685BB907480221032200F02BF90548B7
:101AA0004FF41651BDE8084000F0CEB908BD00BFA4
:101AB000241100207C11002002284FF0000309DDD2
:101AC000C21E074951F8220041F8223020B10368B4
:101AD0005B681847184670474FF0FF30704700BFEB
:101AE000200E0020022870B50C4615460FDC0E4B68
:101AF0001B680BB9FFF7CAFF6619B44205D00B4843
:101B000014F8011B00F0CAF9F7E7284670BD033846
:101B1000074B53F8200020B10368BDE870401B68F4
:101B200018474FF0FF3070BD241100207C110020B9
:101B3000200E0020022810B50C460ADC0B4B1B6857
:101B40000BB9FFF7A3FF0A4800F08CF920700120C1
:101B500010BD0338074B53F8200020B10368BDE8DF
:101B600010409B6818474FF0FF3010BD2411002033
:101B70007C110020200E0020022807DD0338064BD0
:101B800053F8200020B103681B69184700207047F4
:101B90004FF0FF30704700BF200E0020704708B59F
:101BA000FFF7B1FCFFF7FAFF08BD704708B5FFF774
:101BB000FCFFBDE80840FEF777BB00000C4A136845
:101BC00010B51844EFF30881884205D3094B0C2265
:101BD0001A604FF0FF3010BD0749096821B1074C6A
:101BE000246821448842F1D21060184610BD00BF1D
:101BF000A0010020081200201C0E0020200F002051
:101C0000074C08B523680546986802F02BFF236847
:101C1000D86802F027FF0DB1FFF714FCFEE700BF04
:101C2000D0050020012070477047704708B5FFF7C6
:101C3000FBFF08BD08B5FFF7F8FF08BD10B503F0BE
:101C40000FF8044610B9024802F066FB204610BDAA
:101C5000D9A0000808B103F00BB87047034610B5CF
:101C600053F8042B044602B9036022689A4204D058
:101C700003480449592202F0EDFA206810BD00BF64
:101C800015A1000829A100084268184903469201DD
:101C900010B588181C688C509A6842600246D96852
:101CA00042F8081F196951605969916000F11001EB
:101CB0001A6A8A600022C261C2848284C2858285D7
:101CC000B3F91A20013201D1082305E0B3F9183025
:101CD00001330CBF04230C234B6001F0C4FE20B180
:101CE0000348BDE8104002F017BB10BD240F0020D0
:101CF0007AA10008F0B5044685B008460E46494969
:101D0000154602F051FA48490746284602F04CFAB7
:101D10000146384602F02AFA2060013004D14348D7
:101D20004349662202F096FA2368424A93421DD044
:101D300002F5806293422FD0A2F55042934241D1E6
:101D40003D4B1A6A42F400321A621A6A22F40032D7
:101D50001A62002202921A6C42F400321A641B6C5E
:101D600003F400330293029B01232AE0324B5A6AA8
:101D700042F010025A625A6A002122F010025A629E
:101D800001915A6C42F010025A645B6C616003F07E
:101D900010030193019B15E0274B5A6A42F0200281
:101DA0005A625A6A22F020025A62002203925A6C46
:101DB00042F020025A645B6C03F020030393039B00
:101DC000052363603046174902F0B2F928461649E8
:101DD00002F0AEF9721C03D030460121FFF738FC47
:101DE0006B1C03D028460121FFF732FC4FF4165339
:101DF000A3600023E360236163612362268365831C
:101E00002046FFF741FF22680C4B9A4207D10C4B4A
:101E10000C4801221A6021464C2202F079FF05B0DD
:101E2000F0BD00BFF49C0008089B000892A10008C8
:101E3000AEA10008001001400038024000440040FC
:101E4000241100207C1100208160FFF71DBF0000DD
:101E50004368034A9B01D3581868C0F34010704789
:101E6000240F002038B5446805462846FFF7F0FFE8
:101E70000028FAD0A401034B1B595868C0F308008E
:101E800038BD00BF240F00204368034A9B01D3588C
:101E90001868C0F3C0107047240F002070B5456863
:101EA00006460C463046FFF7EFFF0028FAD0AD019A
:101EB000024B5B59C4F308045C6070BD240F002022
:101EC000DFF820D0002103E0074B5B58435004317A
:101ED0000648074B42189A42F6D301F0CDFEFEF7B2
:101EE000AFF970470080012020A60008980100206B
:101EF000300A0020FEE7000008B50B4B1A6842F4D8
:101F000000721A601A6842F480621A601A6842F419
:101F100080721A60032000F017F80F20FEF722FFEE
:101F200000F047F8002008BD003C0240024A136858
:101F300001331360704700BFC8110020014B1868BF
:101F4000704700BFC8110020074AD36823F4E0633C
:101F50001B041B0C43F0BF6343F4003300F0070085
:101F600043EA0023D360704700ED00E043092033CB
:101F700000F01F0004490122824041F82320BFF3F2
:101F80004F8FBFF36F8F704700E100E090F835305E
:101F9000022B01BF0523026880F83530136815BF96
:101FA000802323F001034365136014BF0120002048
:101FB000704770472DE9F3410F68002201239340D9
:101FC00003EA07059D4240F0B9804C6824F0100CEC
:101FD000BCF1020F14D14FEAD20E00EB8E0E02F0CC
:101FE0000706DEF82030B6004FF00F0808FA06F8B2
:101FF00023EA08080B69B34048EA0303CEF820300F
:102000004FEA420E0323066803FA0EF3DB4303EAAA
:10201000060804F0030606FA0EF60CF1FF3C48EA47
:102020000606BCF1010F066011D8866803EA060CAB
:10203000CE6806FA0EF64CEA06068660466826EA80
:10204000050CC4F3001696404CEA06064660C668C6
:1020500003EA060C8B6803FA0EF64CEA0603C3602B
:10206000E3006BD5394E00230193D6F844E04EF4DB
:10207000804EC6F844E0766C06F480460196019ED8
:1020800022F0030606F1804606F59C3602F0030CAA
:10209000D6F808804FEA8C0C4FF00F0E0EFA0CFEAB
:1020A00028EA0E0EDFF8AC80404519D003F18043DA
:1020B00003F5013398420ED003F5806398420CD0AB
:1020C00003F5806398420AD003F5806398420CBF01
:1020D0000423052304E0012302E0022300E003239C
:1020E00003FA0CF343EA0E03DFF864E0B360DEF8B2
:1020F0000030EE4314F4803F14BF2B433340CEF83E
:102100000030DEF80430DFF848E014F4003F14BF7C
:102110002B433340CEF80430DEF8083014F4801F2F
:1021200014BF2B433340CEF80830DEF80C30A40245
:1021300054BF06EA03051D43054BDD600132102A3A
:102140007FF43CAF02B0BDE8F08100BF0038024030
:10215000003C0140000002402DE9F04100224FF018
:10216000010C0CFA02F303EA010E9E455FD1032332
:1021700002FA0CF5046803FA05F5ED4322FA03F7B9
:102180002C4000EB8707046002F007083C6A0F262A
:102190004FEA880806FA08F824EA08043C628768CF
:1021A000DFF89C802F40876047686FEA0E04274065
:1021B0004760C7683D40C56022F0030505F18045D2
:1021C00005F59C3502EA0307D5F808E0BF00BE40DC
:1021D000404506EA0E0E11D008F5806840450FD044
:1021E000DFF860C060450DD00CF5806C60450AD00A
:1021F000114B98420CBF0423052304E0002302E0A6
:10220000634600E00223BB409E4510D1AB6823EA41
:1022100006060A4BAE601D6825401D605D682540BE
:102220005D609D6825409D60DD682C40DC6001326A
:10223000102A94D1BDE8F08100100240003C01401A
:1022400000000240000802402DE9F843089C0546C2
:102250000E4690461F46C1F307492B68B9F1010F9E
:102260000CBF58699869C04380B230420CBF01234B
:102270000023434512D17B1CEFD04FB9002320220D
:102280002B6385F83C3085F83D200320BDE8F883BA
:10229000FFF754FE001BB842DFD9EFE70020BDE88E
:1022A000F883704770B50446002863D090F83D303D
:1022B00003F0FF021BB980F83C20FFF7F2FF226811
:1022C0002D4D242384F83D30136823F0010313605F
:1022D00001F080F8636822682849B0FBF1F1AB4255
:1022E0002E4688BF4FF49675516082BF69434FF404
:1022F0007A75B1FBF5F1B34201F10101116208D821
:102300005B00B0FBF3F0C0F30B03032B98BF04207A
:1023100016E0A16849B903EB4303B0FBF3F0C0F347
:102320000B0363B140F400400AE019214B43B0FBBA
:10233000F3F0C0F30B0313B140F4404000E0012080
:10234000216AE369D0610B431360E16823690B43A1
:102350009360A16963690B43D360136843F0010381
:10236000136000202023206484F83D30206384F82B
:102370003E0070BD012070BDA086010040420F00EC
:1023800073B50024019490F83D40069D202C01D0A7
:1023900002204DE0042D06D0012D04D090F83C40E1
:1023A000012C1AD1F4E7234C46F2A8162468B4FB9A
:1023B000F6F6192474430194019C661E01963CB9FB
:1023C0002023046380F83C4080F83D3003202FE058
:1023D0000468A469A407EFD4E0E7012480F83C4036
:1023E0000468266826F400662660212680F83D6091
:1023F000102680F83E60002606644385C56241646D
:102400000385036B4262122B00D04BB9042D03D01D
:10241000012D01D0122B03D1236843F48073236074
:102420006268002342F4E06280F83C306260184643
:1024300002B070BDA401002073B50024019490F88F
:102440003D40069D202C01D0022054E0042D06D0F2
:10245000012D04D090F83C40012C1AD1F4E7274C10
:1024600046F2A8162468B4FBF6F6192474430194C6
:10247000019C661E01963CB92023046380F83C4011
:1024800080F83D30032036E00468A469A407EFD447
:10249000E0E7012480F83C400468266826F40066E2
:1024A0002660222680F83D60102680F83E600026D7
:1024B00006644385C56241640385036B4262112B48
:1024C00000D083B9042D06D0012D04D015F5803F2E
:1024D00001D0112B07D1236843F480632360236864
:1024E00043F4807323606268002342F4E06280F862
:1024F0003C306260184602B070BD00BFA4010020ED
:1025000090F83D30202B01BF282380F83D30036830
:102510001A6801BF42F480621A605A6842F440723D
:1025200006BF00205A600220704700002DE9FF47D7
:1025300004461F4689469046FFF700FD94F83D305B
:10254000202B064601D0022081E000904149204620
:1025500001221923FFF778FE0028F4D194F83C30CB
:10256000012BF0D02268012384F83C30136823F457
:1025700000631360242384F83D30374B2064054604
:10258000E3622268136843F4807313602046009668
:102590004FF0011100223B46FFF756FE08B1032021
:1025A00055E0236809F0FE021A61FFF7C7FC0646F2
:1025B000236859695A6994F83D30C1F34001C2F368
:1025C0008022DBB269B962B9A02B0AD01FB9A0235F
:1025D00084F83D30ECE7FFF7B1FC801BB842F6D839
:1025E000E6E723684FF0200A84F83DA05A6912F00C
:1025F000020F1A6842F400721A6014D0002203928B
:102600005A6903929B690393039B009620461149E4
:1026100001221923FFF718FE0028C0D184F83DA03D
:1026200084F83C0013E06FF480625A612046009603
:10263000084901221923FFF707FE0028AFD1013511
:1026400045459ED384F83C0084F83DA0012004B0A9
:10265000BDE8F087020010000000FFFF70477047E0
:102660000368F0B59D6959695A6890F83E40E4B234
:10267000102C8BB002D0402C40F03F8211F0011F93
:102680002FD097052DD590F83E40402C05D1046DF4
:102690000CB9446C0AE0446C0BE00469B4F5804F5B
:1026A0000AD190F83D40212C446C02D104F0FE0484
:1026B00015E044F001041AE0046D34B9446C04F4EC
:1026C0004074E41144F0F00409E0046D012C40F082
:1026D000A580446C04F44074E41144F0F1041C61DE
:1026E0009CE09C4C0C4024B1960502D5446CE4B2AD
:1026F000F5E7994C0C40002C00F09080940540F1D7
:102700008D8090F83E40C66AD0F830E090F83D7079
:10271000222FE4B27BD1076D47B9402C06D1019737
:102720005C6901949C690194019C77E0046D84B913
:102730000769B7F5404F0CD102945C6902949C691B
:102740000294029C1C6844F480741C60046D013483
:102750005BE0448DA4B234B903945C6903949C6932
:102760000394039C26E0448DA4B2012C27D1042EAF
:1027700015D0082E13D0BEF1120F10D0C46A022C4F
:102780001C6814BF24F4806444F480641C6000243A
:1027900004945C6904949C690494049C34E01C686F
:1027A00024F480641C60002405945C6905949C6991
:1027B0000594059C1C6844F400741C6024E0448D5E
:1027C000A4B2022C15D1C46A022C1C681DBF24F4CB
:1027D00080641C601C6844F4806418BF44F4006486
:1027E0001C60002406945C6906949C690694069C0F
:1027F0000AE01C6844F480641C60002407945C694F
:1028000007949C690794079C0024046506E0002453
:1028100008945C6908949C690894089C4F4E504C3D
:102820002E400C40002E00F0B5804E4D0D40002D86
:1028300064D0510562D5002C60D190F83D20058D03
:1028400090F83E10C46AD2B2C9B2D5B9212A1AD1C1
:10285000042C00F08980082C00F0868014F5803F5D
:1028600000F082805A6822F4E0625A6090F83D30AD
:1028700090F83E2003F003031343036380F83E50B7
:1028800062E0212A05D0402940F00D82222A40F042
:102890000A82428D92B2002A00F0998090F83E2080
:1028A000402A40F0AF81026D7AB9C26C012A826C75
:1028B00004D1D2B21A61036D023304E0C2F30722DD
:1028C0001A61036D01330365EDE1026D012A02D146
:1028D000826CD2B2F4E7026D022A40F0E48190F8F3
:1028E0003D20222A04D11A6842F480721A60DAE18B
:1028F00090F83D20212A40F0D68183E1002C00F0A1
:10290000D281970540F1CF81C16A90F83D20212AFC
:1029100040F0C981428D92B2002A40F073810429AF
:1029200022D0082920D011F5803F1DD0596821F40C
:10293000E061596090F83D3090F83E1003F00303D9
:102940000B43036380F83E20202380F83D30FEF7E0
:1029500009FDA8E1080001000200010004001000C8
:1029600004000100800001005A6822F4E0625A600D
:102970001A6842F400721A6000232022036380F870
:102980003D2090F83E2080F83E30402ADFD1FFF70E
:1029900065FE88E19E4D0D40002D44D0560542D580
:1029A000002C40D190F83D20222A40F07C81428DBD
:1029B00092B2032A00F26E81023A012A1A6822F4C6
:1029C00080621A6008D81A6842F400621A605A6875
:1029D00022F480625A6066E1C26A022A02BF1A6863
:1029E00042F400621A605A6822F4E0625A60426A55
:1029F0001B69511C41621370438D013B9BB243859F
:102A000090F83D3090F83E2003F003031343036336
:102A1000202380F83D3090F83E30402B4FF00003EB
:102A200080F83E305DE0002C00F03D81950540F1DE
:102A30003A81C26A418D89B20329416A0BD1042AC5
:102A400004D0082A02D012F5803F51D11A6822F42E
:102A500080621A604CE0448DA4B2022C48D1042A52
:102A600018D0082A16D012F5803F13D01C68013AFE
:102A700024F480641C60012A9EBF1A6842F48072AC
:102A80001A6090F83D2090F83E4002F00302224385
:102A9000026305E0122202631A6842F400721A60AF
:102AA0001B694A1C42620B70438D013B9BB24385FC
:102AB000436A5A1C4262026812691A70438D0268A6
:102AC000013B9BB24385536823F44073536020233A
:102AD00080F83D300023036390F83E2080F83E30BC
:102AE000402A02D1FFF7BBFDDDE0FEF75AFCDAE039
:102AF0004A1C1B6942620B70D1E0464C0C4074B119
:102B000094050CD599699B6981F004011F06C1F3F6
:102B1000800154BF8289028BFEF772FCC3E03E4CF9
:102B20000C40002C32D0960530D590F83D205968E5
:102B300021F4E0615960002109915C6909941C68E5
:102B400044F001041C60099C1C68D2B224F4806427
:102B50001C60A2F12803022B0AD8304BC362202349
:102B6000016380F83D3080F83E10FEF75BFC9AE090
:102B7000036B222B02D0222A40F0958000232022D2
:102B8000036380F83D2080F83E307AE0244E254CE7
:102B90002E400C40002E49D0234D0D4055B3550515
:102BA00028D53CBB90F83D10428D92B2C9B2002AA4
:102BB00079D0426A541C446212781A61428D013AFB
:102BC00092B24285428D92B2002A6CD129296AD1F3
:102BD0005A6822F480625A6090F83D3090F83E20A6
:102BE00003F0030313430363282380F83D30FEF70B
:102BF00011FC58E0002C56D0940554D5428D92B269
:102C0000002A50D0426A511C416212781A6146E093
:102C10004000010002000100100001000000FFFF61
:102C20000400100004000100800001001F4D0D4051
:102C300055B3510528D53CBB90F83D20418D89B254
:102C4000D2B200292FD0416A1B694C1C44620B7020
:102C5000438D013B9BB24385438D9BB21BBB2A2A0C
:102C600021D10268536823F48063536090F83D30AB
:102C700090F83E2003F0030313430363282380F8F6
:102C80003D30FEF7CBFB0EE06CB192050BD5428DCB
:102C900092B242B1426A1B69511C41621370438D6A
:102CA000013B9BB243850BB0F0BD00BF400001006B
:102CB000F8B50368764A5E695D68324004464AB1F9
:102CC000EA0541BF026C42F0010202646FF48072B7
:102CD00048BF5A6116F4813F09D0EF0541BF226C0D
:102CE00042F0020222646FF4007248BF5A6116F487
:102CF000823F63D0E80561D594F83E70618D94F809
:102D00003D20206B202F89B2D2B24CD100294AD16C
:102D100002F0F701212903D0282A44D1212842D1E9
:102D200094F83D20E16A0429D2B201D0082919D1D2
:102D3000282A17D1574AE2625A6822F4E0625A60A0
:102D40006FF480625A611A6822F480621A6000236C
:102D500020222363204684F83D2084F83E30FEF78D
:102D600061FB2BE0212A26D14A4AE26294F83D20F9
:102D700094F83E1002F003020A432263202284F8F2
:102D80003D20002284F83E205A6822F4E0625A6016
:102D90006FF480625A611A6822F480621A602046D9
:102DA000FEF738FB0AE0226C42F0040222641A6843
:102DB00042F400721A606FF480625A6116F4843F24
:102DC0000AD0E90541BF236C43F00803236423685C
:102DD00044BF6FF400625A61236C002B56D094F804
:102DE0003D30293B012B05D800232363282384F899
:102DF0003D300AE094F83D30602B1CBF202384F85E
:102E00003D300023236384F83E3023681A6822F49F
:102E100000621A601A68120517D55A68606B22F4AE
:102E200000625A6030B11C4B0365FFF7AFF8D0B1B8
:102E3000606B07E0A06BB0B1174B0365FFF7A6F816
:102E400088B1A06B036D98470DE094F83D30602B7E
:102E500006D1202384F83D302046FEF7E5FA02E053
:102E60002046FEF7B5FA94F83D30282B0ED1236C9E
:102E70005B070BD5074BE362202200232363204628
:102E800084F83D2084F83E30FEF7CCFAF8BD00BF50
:102E9000000101000000FFFF9D2E0008806B02680A
:102EA00008B5136823F480631360426B00234385E5
:102EB0001365826B136590F83D20602A4FF0200265
:102EC00080F83D2080F83E3002D1FEF7ADFA08BD13
:102ED000FEF77EFA08BD90F83D20D2B2202A10B548
:102EE00016D1242380F83D3003681C6824F00104C7
:102EF0001C605C6A24F010045C625C6A21435962C5
:102F0000196841F00101196080F83D20002010BDD2
:102F1000022010BD0368F7B5D907044603D423681F
:102F20009A073BD488E0A74B9A6802F00C02042A67
:102F300007D09A6802F00C02082A0BD15B685B028A
:102F400008D5A04B1B689F03E9D56368002BE6D129
:102F5000012034E19C4B22791A7063687BB1FEF743
:102F6000EDFF0546974B1B689E03D8D4FEF7E6FF9E
:102F700041F28833401B9842F4D903201FE1FEF749
:102F8000DDFF05468F4B1B689803C8D5FEF7D6FFBB
:102F900041F28833401B9842F4D9EEE7894B9A6896
:102FA00012F00C0F07D09A6802F00C02082A16D112
:102FB0005B68590213D4834B1A68920702D5E26802
:102FC000012AC5D11968F82090FAA0F02269B0FA58
:102FD00080F021F0F80182400A431A602CE0E26898
:102FE0007A4BDAB101221A60FEF7A8FF0546754850
:102FF00003689F0705D4FEF7A1FF401B0228F6D9FE
:10300000BBE70268F82191FAA1F12369B1FA81F1D5
:1030100022F0F8028B40134303600DE01A60FEF7C4
:103020008DFF0546674B1B689E0705D5FEF786FF9B
:10303000401B0228F6D9A0E72368180703D42368A9
:10304000590744D51FE06269614B72B101221A60D1
:10305000FEF774FF05465B4B5B6F9A07EFD4FEF7F4
:103060006DFF401B0228F6D987E71A60FEF766FF5E
:103070000546544B5B6F9B07E1D5FEF75FFF401B96
:103080000228F6D979E7002301934E4B1A6C42F0DF
:1030900080521A641B6C4F4A03F080530193019BCA
:1030A000136843F480731360FEF748FF0546494BED
:1030B0001B68DF050ED5484B227A1A70A368BBB196
:1030C000FEF73CFF05463F4B1B6F9E0708D5A269E4
:1030D000EAB959E0FEF732FF401B0228E7D94CE776
:1030E000FEF72CFF41F28833401B9842EBD944E7AE
:1030F000FEF724FF0546334B1B6F9807E7D5FEF715
:103100001DFF41F28833401B9842F4D935E72D4B1F
:103110009B6803F00C03082B3FF41AAF2F4D0023DC
:10312000022A2B603ED1FEF709FF064625480368B8
:1031300099012BD447F6C07797FAA7F74FF440369A
:10314000B7FA87F796FAA6F64FF07061B6FA86F6E8
:1031500091FAA1F1E369226AB1FA81F11A43636A33
:10316000BB401A43A36A5B08013BB3401343E26AC6
:103170008A401343436001232B60FEF7DFFE0446C1
:10318000104B1B689A0107D5002018E0FEF7D6FE09
:10319000801B0228CAD9F0E6FEF7D0FE001B0228E9
:1031A000EED9EAE6FEF7CAFE0446064B1B689B0111
:1031B000EAD5FEF7C3FE001B0228F6D9DDE603B010
:1031C000F0BD00BF00380240023802400000474214
:1031D000800E474200700040703802406000474255
:1031E00010B51C4CA36803F00C03042B2ED0082B45
:1031F0002ED1626802F03F03626847F6C07112F494
:10320000800F626891FAA1F147F6C07000EA0200EF
:1032100008BF114AB1FA81F120FA01F00EBFB2FBEA
:10322000F3F20E49B1FBF3F202FB00F3094A5068D6
:103230004FF4403292FAA2F200F44030B2FA82F235
:10324000D04001304000B3FBF0F010BD034810BD8A
:10325000014810BD003802400024F40000127A003A
:10326000584B1A6802F00F02914270B504460D46A1
:103270000AD82168880710D55348836823F0F002E4
:10328000A3681343836008E0CAB21A701B6803F096
:103290000F038B42EDD0012070BDC90706D4494B06
:1032A0001A6802F00F0295425AD360E06368464AFA
:1032B000012B03D1126812F4003F08E0991E012986
:1032C000126802D812F0007F01E012F0020FE2D083
:1032D0003D498A6822F0030213438B60FEF72EFEFD
:1032E0006368012B06460ED1374B9B6803F00C0335
:1032F000042BD4D0FEF722FE41F28833801B984283
:10330000F2D9032070BD022B0DD12F4B9B6803F027
:103310000C03082BC3D0FEF711FE41F28833801B4B
:103320009842F2D9EDE7032B14D1274B9B6803F0A9
:103330000C030C2BB3D0FEF701FE41F28833801B47
:103340009842F2D9DDE7FEF7F9FD41F28833801BA0
:103350009842D6D81C4B9B6813F00C0FF3D19EE714
:10336000EAB21A701B6803F00F03AB4293D12168D5
:103370004A0706D51448836823F4E052E3681343F0
:1033800083600B0741BF104A2169936823F46043AF
:1033900044BF43EAC1039360FFF722FF0A4BF022C8
:1033A0009B6892FAA2F203F0F003B2FA82F2D340E1
:1033B000064AD35CD840064B18600F20FDF7D2FCBC
:1033C000002070BD003C02400038024077A2000897
:1033D000A4010020084B4FF4E0529B6892FAA2F23D
:1033E00003F4E053B2FA82F2D340044AD35C044AB5
:1033F0001068D840704700BF0038024077A200082C
:10340000A4010020084B4FF460429B6892FAA2F29C
:1034100003F46043B2FA82F2D340044AD35C044A14
:103420001068D840704700BF0038024077A20008FB
:10343000A40100200F2303600B4B9A6802F00302E3
:1034400042609A6802F0F00282609A6802F4E052E8
:10345000C2609B6803F46043DB080361034B1B6895
:1034600003F00F030B60704700380240003C02403D
:10347000036A23F001030362036A426870B584693A
:103480000D6824F07304254323F002048B68234362
:103490000A4CA0420BD1CC688E6923F00803234369
:1034A0004C6922F44072344323F004032243426007
:1034B0004A6885614263036270BD00BF000001403D
:1034C000036A23F480730362036A426830B5C469F7
:1034D0000D6824F073042C438D6823F4007343EAD1
:1034E00005230C4DA8420ED1CD6823F4006343EAB6
:1034F00005234D6922F4405242EA05128D6923F4F6
:10350000806342EA051242604A68C461C263036292
:1035100030BD00BF00000140036A23F48053036202
:10352000036A30B54468C2690D6822F4E64242EA93
:1035300005228D6823F4005343EA0533064DA84263
:1035400002BF4D6924F4804444EA85144460C2619A
:103550004A680264036230BD000001407047704752
:10356000224A036890420ED0B0F1804F0BD0A2F5F2
:103570007C42904207D002F58062904203D002F56F
:103580008062904214D14A6823F070031343174AB3
:10359000904225D0B0F1804F22D0154A90421FD0E2
:1035A00002F5806290421BD002F58062904217D0F3
:1035B000104A904214D002F58062904210D002F579
:1035C000806290420CD003608B68C3620B68836298
:1035D000064B984204BF0B690363012343617047A4
:1035E000CA6823F440731343EDE700BF00000140B5
:1035F000000400400040014010B50446A0B190F81E
:10360000393003F0FF021BB980F83820FFF7A6FF1E
:10361000022384F839302068211DFFF7A1FF012320
:1036200084F83930002010BD012010BD10B50446CB
:10363000A0B190F8393003F0FF021BB980F83820B0
:10364000FFF78DFF022384F839302068211DFFF732
:1036500087FF012384F83930002010BD012010BD00
:10366000036A23F010030362036A426830B5846979
:103670000D6824F4E64444EA05248D6823F0200311
:1036800043EA05130B4DA8420ED1CD6823F0800309
:1036900043EA05134D6922F4406242EA85028D69CE
:1036A00023F0400342EA850242604A6884618263F3
:1036B000036230BD0000014038B590F83830012B6E
:1036C00004460D464FF0020058D0012384F83830EC
:1036D00084F839000C2A4BD8DFE802F0074A4A4A3E
:1036E000174A4A4A294A4A4A39002068FFF7C0FE69
:1036F00023689A6942F008029A619A6922F00402EA
:103700009A6199692A690A430FE02068FFF7A8FFC8
:10371000236829699A6942F400629A619A6922F4DD
:1037200080629A619A6942EA01229A6120E02068E7
:10373000FFF7C6FE2368DA6942F00802DA61DA6947
:1037400022F00402DA61D9692A690A430FE020688D
:10375000FFF7E2FE23682969DA6942F40062DA6160
:10376000DA6922F48062DA61DA6942EA0122DA6116
:103770000123002084F8393084F8380038BD10B5B2
:103780000123046A8B4024EA03030362036A8A402C
:103790001343036210BD000010B504460122006807
:1037A000FFF7EDFF2368064A934202BF5A6C42F4CA
:1037B00000425A641A6842F001021A60002010BDEB
:1037C0000000014010B5044601220068FFF7D7FF52
:1037D0002368064A934202BF5A6C42F400425A647C
:1037E0001A6842F001021A60002010BD000001407A
:1037F00010B50423046A8B4024EA03030362036ABE
:103800008A401343036210BD10B5044604220068C9
:10381000FFF7EEFF23685A6C42F400425A641A68BC
:1038200042F001021A60002010BD00002DE9F047AF
:1038300006683369044623F44052C3682169C069AD
:103840001343A2683361F3681143626923F416439A
:103850000A43024323F00C031343F360736923F418
:103860004072A369B0F5004F43EA020373617B4BDA
:103870007CD19E4203D003F580639E4231D1FFF795
:10388000C1FD636819254FEA43086843B0FBF8F8A7
:10389000FFF7B8FD676868437F00B0FBF7F7FFF7F5
:1038A000B1FD63684FF064095B006843B0FBF3F05F
:1038B000B0FBF9F009FB1077FFF7A4FDB8FBF9F8AE
:1038C0006268FF003237B7FBF9F707F0F807684383
:1038D00052004FEA08187F00B0FBF2FAFFF792FDA2
:1038E00030E0FFF777FD636819254FEA4308684326
:1038F000B0FBF8F8FFF76EFD676868437F00B0FB28
:10390000F7F7FFF767FD63684FF064095B006843F2
:10391000B0FBF3F0B0FBF9F009FB1077FFF75AFDAD
:10392000B8FBF9F8FF0062683237B7FBF9F707F028
:10393000F807684352004FEA08187F00B0FBF2FA1C
:10394000FFF748FD454360684000B5FBF0F0B0FB71
:10395000F9F009FB10A2D2003232B2FBF9F303F006
:10396000070343441F44B760BDE8F0879E4202D07E
:103970003B4B9E422ED1FFF745FD676819256843F2
:10398000BF00B0FBF7F7FFF73DFD636868439B009E
:10399000B0FBF3F8FFF736FD63684FF06409684346
:1039A0009B00B0FBF3F0B0FBF9F009FB10831B01A7
:1039B0003233B3FBF9F303F0F008FFF723FDB7FB55
:1039C000F9F76268684392003F01B0FBF2FAFFF733
:1039D00019FD2DE0FFF7FEFC676819256843BF005D
:1039E000B0FBF7F7FFF7F6FC636868439B00B0FB9A
:1039F000F3F8FFF7EFFC63684FF064099B0068433E
:103A0000B0FBF3F0B0FBF9F009FB10831B0132337C
:103A1000B3FBF9F303F0F008FFF7DCFCB7FBF9F7B1
:103A20006268684392003F01B0FBF2FAFFF7D2FCF4
:103A3000454360688000B5FBF0F0B0FBF9F009FB8E
:103A400010A212013232B2FBF9F202F00F0208EBBF
:103A500002033B44B360BDE8F08700BF00100140A3
:103A600000140140704710B5044640B390F8393057
:103A700003F0FF021BB980F83820FFF7F3FF22683C
:103A8000242384F83930D36823F40053D3602046CC
:103A9000FFF7CCFE23681A6922F490421A615A6932
:103AA00022F02A025A61DA6842F40052DA600020F9
:103AB0002023E06384F8393084F83A3010BD0120C7
:103AC00010BD0000174A1849936803F00C03042B3B
:103AD00003D0082B03D0154B18E0154B16E05068A7
:103AE000536810F4800F03F03F03506814BF104A6E
:103AF0000E4AB2FBF3F30B4A5268C2F30142C0F321
:103B00008810013243435200B3FBF2F30B60054BC4
:103B1000084A9B68C3F30313D25C0B68D3400B6065
:103B2000704700BF00380240A40100200024F400C8
:103B300000127A0087A2000810B594B0214B002132
:103B400001911A6C42F080521A641B6C1E4A03F0F9
:103B500080530193019B0291136823F4404343F483
:103B600000431360136803F440430293029B012354
:103B7000089300B1052309934FF480030F930823A2
:103B800010934FF4A873119304230224129308A8EE
:103B900007230E941393FFF7BDF978B90F2303930E
:103BA00005904FF480530790214603A80494069390
:103BB000FFF756FBB0FA80F0400900E0002014B097
:103BC00010BD00BF003802400070004030B595B015
:103BD0000024204B01941A6C42F080521A641B6C32
:103BE0001D4A03F080530193019B0294136823F450
:103BF000404343F4004313601368099403F44043C3
:103C00000293029B0F940323089301230B93102329
:103C10000C9310934FF4A87311930423022512936D
:103C200008A807230E951393FFF774F978B90F23AB
:103C3000039305904FF480530790294603A80495F9
:103C40000693FFF70DFBB0FA80F0400900E0204634
:103C500015B030BD003802400070004008B50120AA
:103C6000FFF76AFF30B9FFF767FF18B9FFF7AEFF3C
:103C700000B9FEE708BD0000174AD2F8883010B539
:103C800043F47003154CC2F888302368002143F0D8
:103C900001032360A160236823F0847323F480333D
:103CA00023600F4B6360236823F4802323604FF06D
:103CB0000063E16093600B4B0B4A1A60FEF71CF93E
:103CC000FFF7CCFF236A43F008032362236A23F043
:103CD0000803236210BD00BF00ED00E00038024081
:103CE00010300024A40100200024F400054B1868C3
:103CF00030B901221A60044B044A1A60FDF732B849
:103D0000704700BF28110020CC110020000C00409B
:103D100008B5044B1B680BB9FFF7E8FF024B586A64
:103D200008BD00BF28110020000C0040044B054ACC
:103D300013605863DA6842F00202DA60704700BF2D
:103D4000000C0040CC110020034B044A1360DA68D9
:103D500022F00202DA607047000C0040CC11002013
:103D6000034A044B13606FF002021A61704700BFF0
:103D7000CC110020000C004010B580B114685368CD
:103D80000CB9DA070BD513F0010F4FEA63031CBF20
:103D9000C258145918442346BDE81040184710BDB6
:103DA000F7B51A4B036000230F460093019302A955
:103DB00003610446164600F1180211E9030082E887
:103DC00003001349216248F207016162E362A462C1
:103DD0002263104A6263BFF36F8FBFF34F8F04F10A
:103DE0003C0584F8383019462846942201F02AF818
:103DF000094BC4F8D030284639463246FDF716F94B
:103E0000064B20461C6003B0F0BD00BFA0A2000816
:103E100001A090E8793D0008A08601002C11002047
:103E2000036870B5094D1B68044698472B68A34288
:103E300006D004F13C00D4F8D010FDF7CFF82C6088
:103E4000236820465B68BDE8704018472C110020AD
:103E5000F7B51D46036804461B680F46164698478B
:103E60002046FFF7DDFF9DF8203083F00103324646
:103E7000009339462B4604F13C00FDF707FA23680E
:103E800006465B6820469847A81B18BF012003B070
:103E9000F0BDF7B51D46036804461B680F4616467D
:103EA00098472046FFF7BCFF9DF8203083F00103C0
:103EB0003246009339462B4604F13C00FDF77AF96F
:103EC000236806465B6820469847A81B18BF012058
:103ED00003B0F0BDC36810B504460BB19B689847AA
:103EE000204610BD10B5044B044640F8043BFFF7D4
:103EF000F1FF204610BD00BFA0A2000810B5044687
:103F0000FFF7F0FF2046FDF7A5FE204610BD00009C
:103F100008B50248FDF7A2FE08BD00BF3011002021
:103F200008B50248FDF79AFE08BD00BF3011002019
:103F300070470368184708B10B6803607047704703
:103F400010B5084B044640F8143BFCF775FE04F12D
:103F50003400FCF7DDFB04F12400FCF7D9FB20461C
:103F600010BD00BFC8A2000810B50446FFF7E8FF67
:103F70002046FDF76FFE204610BD000038B5044610
:103F80000D46FCF7C5FB2CB10DB9E56038BD024B01
:103F90002560E36038BD00BFB0A200082DE9F04104
:103FA0000546174B45F8043B04464FF010080E46F3
:103FB000424604F114072846002100F043FF424620
:103FC0003846DFF84480002100F03CFF00232363E3
:103FD000236404F124004146FFF7D0FF04F13400CC
:103FE0004146FFF7CBFF3146064A23463846FCF7E9
:103FF00099FD2846314600F07DF82046BDE8F08165
:10400000C8A2000889400008313F00082DE9F041AE
:104010000D46064600F038F9EF6806F1240406F173
:104020001408204677B1FCF773FB3CB1EB681BB179
:104030005B68204629469847EB6833630121404678
:104040000A4605E00549FFF799FF404601213A4637
:10405000FCF728FEBDE8F04100F040B9313F000810
:10406000C36810B504462BB90548064940F2E7126B
:1040700000F0F0F8E36820461B68BDE810401847E0
:10408000D0A20008D5A20008012908B502D0022953
:1040900002D008BD243000E03430FFF7E1FF08BD56
:1040A00070B50E4604461546FCF7B8FC013609D03B
:1040B00020460021FCF7CCFC20462946BDE8704094
:1040C000FCF7C1BC70BD000038B5B0F90030013359
:1040D00004460D4604D105480549342200F0BAF8DB
:1040E000E268636805B91B04136038BD609A000874
:1040F000359E00080022FFF7D3BF70B50E46044678
:104100001546FCF78BFC01360DD020462946FFF7FB
:10411000DBFF20460121FCF79BFC20460021BDE887
:104120007040FCF790BC70BD0022FFF7E6BF0000B6
:1041300010B50446013001D110BD0C31B1F9003089
:104140005A1C0BD0A342F8D120468968FDF752FAD9
:1041500020460021BDE81040FDF77ABA0248BDE8CC
:10416000104000F0D9B800BF1EA30008884208B56F
:104170000AD0431C07D0013106D0044800F0CCF827
:104180004FF0FF3008BD084608BD00BF2FA3000850
:10419000B1F900305A1C05D0834201D148687047FC
:1041A0000C31F5E718467047421C10B5044607D09D
:1041B000FFF7EEFF431C044602D1024800F0ACF8C2
:1041C000204610BD40A30008B1F900305A1C05D0AC
:1041D000834201D1886870470C31F5E71846704773
:1041E000421C10B5044607D0FFF7EEFF431C0446FF
:1041F00002D1024800F090F8204610BD60A30008EC
:10420000014800F003B800BF94A30008036870B52C
:10421000DB680446984763685A6823681AB99B6844
:10422000BDE8704018475B6815689847281A002851
:10423000636808DC5A68916859601B68002BEAD0F3
:1042400050689847E7E721685A680B691068BDE82D
:104250007040184770B506460D46144600F014F835
:1042600031462A4623460348FDF740F9BDE8704031
:10427000FDF7E8B89CA30008EFF3108000F0010000
:1042800080F001007047000038B5FFF7F5FF80F0BF
:104290000100C5B272B60C4C23680BB90B4B1D70F4
:1042A0002368013304D10A480A493522FFF7D2FFB7
:1042B00023682BB125B9084806493922FFF7CAFF00
:1042C00023680133236038BD4011002044110020D1
:1042D000CDA30008F3A3000836A4000810B50A4CCB
:1042E000236883B1FFF7C8FF20B1084808494A2274
:1042F000FFF7B0FF2368013B236023681BB9054B20
:104300001B7803B962B610BD4011002036A4000826
:10431000F3A30008441100200FB407B504A951F815
:10432000040B0191FDF7BAF8012000F0CBFA38B583
:104330000446FFF7EDFC0546FFF7EAFC401BA042F0
:10434000FAD338BD07EE100ADFED047A67EE277A5C
:10435000FDEEE77A17EE900AFFF7E9BF00247449F3
:104360004FF47A735843FFF7E2BF000021F0004199
:10437000704700BF00F000B82DE9F047C2F1000916
:1043800049EA020923F00048DFF8D4C148EAD979A4
:1043900082B0E14514461D46CDE900010F4647D8DD
:1043A000C0F1000A4AEA000A21F0004949EADA7A33
:1043B000E2453DD803F1404C0CF5801C5CEA020C50
:1043C0004CD04FEAA37A0AF0020A4AEAD17A59EAB3
:1043D000000136D058EA04013AD06149884551D0ED
:1043E0005F49894534D0C8EB09084FEA2858B8F12D
:1043F0003C0F43DC002D70DBDDE9000104F090F898
:10440000FFF7B4FF00F0B0F8BAF1010F62D0BAF1D3
:10441000020F52D0BAF1000F10D03FA3D3E900230E
:1044200003F0A0FD3EA3D3E9002303F09BFD05E0CC
:1044300010461946DDE9002303F096FD02B0BDE801
:10444000F087BAF1030FC5D8DFE80AF00D0D14109C
:10445000002F2EDB34A1D1E90001EFE702B0BDE867
:10446000F04700F081B8DDE90001E7E730A1D1E9CC
:104470000001E3E72AA1D1E90001DFE72AA1D1E9A0
:104480000001C1E7C1452ED0BAF1030FA8D801A1A0
:1044900051F82AF0AD440008A5440008754400080E
:1044A0006D44000800204FF00041C7E700200021C4
:1044B000C4E721A1D1E90001C0E717A3D3E9002394
:1044C00003F050FD02460B4615A1D1E9000103F0AF
:1044D00049FDB3E701F10041B0E718F13C0F8BDA79
:1044E0000020002190E7BAF1030FB1D8DFE80AF00D
:1044F00006020E0A12A1D1E900019FE712A1D1E93B
:1045000000019BE712A1D1E9000197E712A1D1E9CF
:10451000000193E7AFF30080075C143326A6A13CAB
:10452000182D4454FB210940182D4454FB21F93F18
:10453000182D4454FB2109C0182D4454FB21F9BF08
:10454000182D4454FB21E9BF182D4454FB21E93FA9
:10455000D221337F7CD902C0D221337F7CD9024063
:104560000000F07FAFF300802DE9F04FB64B21F053
:1045700000469E4283B004460D4689460FDDB3498E
:104580008E4200F3B38000F0AE80B9F1000F40F32B
:10459000EF8091A1D1E9000103B0BDE8F08FAC4BF1
:1045A0009E4200F3BD80A3F1DE739E4240F3A780DC
:1045B0004FF0FF3C22462B4620462946CDF804C04A
:1045C00003F084FE02460B4682468B4603F07EFED5
:1045D00083A3D3E9002306460F4603F077FE82A3A8
:1045E000D3E9002303F0C0FC32463B4603F06EFEE5
:1045F0007FA3D3E9002303F0B7FC32463B4603F028
:1046000065FE7DA3D3E9002303F0AEFC32463B46B2
:1046100003F05CFE7AA3D3E9002303F0A5FC324645
:104620003B4603F053FE78A3D3E9002303F09CFC40
:1046300052465B4603F04AFE75A3D3E90023824647
:104640008B463046394603F041FE73A3D3E900237D
:1046500003F088FC32463B4603F038FE70A3D3E9F2
:10466000002303F07FFC32463B4603F02FFE6EA38F
:10467000D3E9002303F076FC32463B4603F026FEE6
:104680006BA3D3E9002303F06DFC32463B4603F0F5
:104690001DFEDDF804C0BCF1FF3F02460B466BD0A7
:1046A000504659464FEACC0603F05EFC22462B46A4
:1046B00003F00CFE674F684B37441E44D6E90023D5
:1046C00003F050FC22462B4603F04CFC02460B46FE
:1046D000D7E9000103F046FCB9F1000F0CDA01F153
:1046E0000045294608E000283FF44FAF2046294600
:1046F00022462B4603F038FC03B0BDE8F08F4EA3F2
:10470000D3E9002303F030FC0022544B04F06EF890
:1047100000283FF44DAF2046294603B0BDE8F08F96
:10472000FFF724FE4E4B9E4204460D4633DCA3F5B4
:1047300050239E4200F3A58002460B4603F014FC72
:104740000022464B03F00EFC002206460F46204690
:1047500029464FF0804303F007FC02460B463046E3
:10476000394603F0DDFE4FF0000C04460D4621E70C
:1047700033A1D1E90001BFE75046594603F0F4FBED
:1047800022462B4603F0A2FD02460B462046294650
:1047900003F0E8FBB0E7334B9E4267DC0022324B6C
:1047A00003F0E0FB002206460F46204629462E4B2A
:1047B00003F08CFD0022294B03F0D6FB02460B468A
:1047C0003046394603F0ACFE4FF0020C04460D466D
:1047D000F0E600BFAFF30080182D4454FB21F93FF1
:1047E00011DA22E33AAD903FEB0D76244B7BA93FE3
:1047F000513DD0A0660DB13F6E204CC5CD45B73FB1
:10480000FF8300922449C23F0D5555555555D53F5C
:104810002F6C6A2C44B4A2BF9AFDDE522DDEAD3F50
:104820006D9A74AFF2B0B33F711623FEC671BC3FF0
:10483000C4EB98999999C93F9C7500883CE4377EF0
:10484000182D4454FB21F9BFFFFF0F440000F07FF7
:10485000FFFFDB3F70A4000850A400080000F03FF9
:10486000FFFFF23FFF7F03400000F83F02460B4688
:1048700000200F4903F054FE4FF0030C04460D4690
:1048800098E600220B4B03F06DFB002206460F4614
:1048900020462946074B03F067FB02460B4630468D
:1048A000394603F03DFE4FF0010C04460D4681E60B
:1048B0000000F0BF0000F03F014600200246034622
:1048C00000F0B4BB08B50021044600F00DFC044B19
:1048D0001868C36B03B198472046FDF791F900BFF4
:1048E00094A400088B899AB22DE9F0410D46110776
:1048F00080463CD46A6843F40063002AAB8159DDEA
:10490000AC6A002C4BD09BB203F48052002192B2CF
:10491000D8F80060C8F80010002A4FD02A6D5F0751
:1049200005D569682B6B521A0BB1EB6BD21A404656
:10493000E9690023A047441C4AD0AA892B692B604F
:1049400022F400639BB200226A60DA04AB814CD48B
:10495000296BC8F8006011B305F14003994202D0F9
:10496000404604F04FFA00202863BDE8F0812E692C
:10497000AEB12C682E6091070CBF6B690023A41B9D
:10498000AB600AE0324623466F6AE9694046B847A1
:104990000028C0EB0404064404DD002CF2DC0020F7
:1049A000BDE8F081AB8943F04003AB814FF0FF30AD
:1049B000BDE8F081EA6B002AA2DCF0E70123404663
:1049C000E969A047431C02461ED0AB89AC6AA6E742
:1049D000D8F800305BB9A9896B6021F400639BB201
:1049E0002A69AB81DB042A60B2D52865B0E71D2BAC
:1049F00001D0162B19D1AA892B692B6022F40062F1
:104A00000023AA816B60A3E7D8F80030002BDCD02C
:104A10001D2B07D0162B05D0AB8943F04003AB818B
:104A2000BDE8F081C8F80060B9E7AB8943F0400306
:104A3000AB81BDE8F08100BF10B5044682B008B17B
:104A4000836B53B1B1F90C0008B902B010BD204618
:104A500002B0BDE81040FFF745BF019100F01AF821
:104A60000199EFE720B1054B01461868FFF7E4BF55
:104A7000034B0449186800F0A3B800BFD00500201C
:104A800094A40008394A0008014900F099B800BF11
:104A9000FD5100082DE9F04F846B83B00746002CD0
:104AA00065D145683348F8630423032107F53B7259
:104AB000C7F8E412C7F8E822C7F8E04205F15C0045
:104AC000AB812C606C60AC606C66EC812C616C61BD
:104AD000AC612146082200F0B5F9BE68DFF898B055
:104AE000DFF898A0DFF89890DFF89880ED61012357
:104AF0000922C5F820B0C5F824A0C5F82890C5F84B
:104B00002C802146F381B28134607460B460746695
:104B100034617461B461082206F15C00019300F015
:104B200091F9FD68F66112200222C6F820B0C6F89D
:104B300024A0C6F82890C6F82C802146A881EA81D6
:104B40002C606C60AC606C662C616C61AC6105F1D2
:104B50005C00082200F076F9019BED61C5F820B0F9
:104B6000C5F824A0C5F82890C5F82C80BB6303B015
:104B7000BDE8F08F894A0008D94E0008FD4E0008B4
:104B8000354F0008554F0008704700BF704700BF01
:104B900038B5094D094C641BA41018BF05EB8405FA
:104BA00005D0013C55F8043D9847002CF9D1BDE8EB
:104BB000384004F011BF00BF280A00202C0A002052
:104BC0002DE9F84310F53876804689461BD000273A
:104BD0007568B468013D10D4A389012B05F1FF3538
:104BE00007D9B4F90E3001332146404601D0C847F9
:104BF00007436B1C04F16804EED13668002EE7D140
:104C00003846BDE8F88337463846BDE8F88300BF2C
:104C100070B50F4E0F4D761BB61007D0043D002423
:104C2000013455F8043F9847A642F9D10A4E0B4D7E
:104C3000761B04F0CBFEB61008D0043D00240134EE
:104C400055F8043F9847A642F9D170BD70BD00BF2A
:104C50001C0A00201C0A0020280A00201C0A002030
:104C6000024B0146186804F0C9B800BFD005002007
:104C7000024B0146186804F0C5B800BFD0050020FB
:104C8000830770B4C9B23FD0541E2AB303788B4255
:104C900023D0431C04E0FCB104788C421DD01446A0
:104CA00013F0030F184604F1FF3203F10103F2D1B0
:104CB000032C14D8651E4CB303788B420DD0421CD4
:104CC000002302E004788C4207D0AB42104603F187
:104CD000010302F10102F5D1002070BC704741EAE6
:104CE0000126034646EA0646184604330268724027
:104CF000A2F1013525EA020212F0803FDAD1043C2C
:104D0000032C1846F0D8D5E71446D1E72046E4E74F
:104D1000844641EA000313F003036DD1403A41D3C6
:104D200051F8043B40F8043B51F8043B40F8043B85
:104D300051F8043B40F8043B51F8043B40F8043B75
:104D400051F8043B40F8043B51F8043B40F8043B65
:104D500051F8043B40F8043B51F8043B40F8043B55
:104D600051F8043B40F8043B51F8043B40F8043B45
:104D700051F8043B40F8043B51F8043B40F8043B35
:104D800051F8043B40F8043B51F8043B40F8043B25
:104D900051F8043B40F8043B51F8043B40F8043B15
:104DA000403ABDD2303211D351F8043B40F8043BB5
:104DB00051F8043B40F8043B51F8043B40F8043BF5
:104DC00051F8043B40F8043B103AEDD20C3205D3C5
:104DD00051F8043B40F8043B043AF9D2043208D0BD
:104DE000D2071CBF11F8013B00F8013B01D30B882F
:104DF00003806046704700BF082A13D38B078DD00D
:104E000010F003038AD0C3F10403D21ADB071CBFDE
:104E100011F8013B00F8013B80D331F8023B20F848
:104E2000023B7BE7043AD9D3013A11F8013B00F881
:104E3000013BF9D20B7803704B7843708B78837009
:104E400060467047F0B4840743D0541E002A3ED019
:104E5000CDB2034603E0621E002C38D0144603F89E
:104E6000015B9A07F7D1032C2AD9CDB245EA052573
:104E70000F2C45EA054515D9A4F110073F0903F1A8
:104E8000100606EB07161A46156055609560D5604A
:104E90001032B242F8D104F00F040137032C03EBB7
:104EA00007130DD91E462246043A032A46F8045B2E
:104EB000FAD8221F22F003020432134404F0030440
:104EC0002CB1C9B21C4403F8011BA342FBD1F0BCB6
:104ED000704714460346C6E710B50C46B1F90E10EC
:104EE00000F0E4F9002803DB236D0344236510BDC3
:104EF000A38923F48053A38110BD00BF2DE9F041A5
:104F00000C4689891D46CB051646074606D5B4F9D9
:104F10000E100022022300F0B5F9A18921F480517E
:104F2000A1813846B4F90E1032462B46BDE8F04157
:104F300000F068B810B50C46B1F90E1000F0A2F9F7
:104F4000A389421C0EBF23F4805343F48053206591
:104F5000A38110BDB1F90E1000F03EB920F003019D
:104F600010F00300C0F1000051F8043B00F1040C04
:104F70004FEACC0C6FF000021CBF22FA0CF2134374
:104F80004FF0010C4CEA0C2C4CEA0C4CA3EB0C023D
:104F900022EA030212EACC1204BF51F8043B0430A7
:104FA000F4D0C2F1000102EA0102B2FA82F2C2F1C7
:104FB0001F0200EBD2007047F0B59BB00D466FF0BA
:104FC00000444FF402774FF6FF766946009504954A
:104FD000ADF80C7002940594ADF80E6000F0A4F9E1
:104FE000009B00221A701BB0F0BD00BF30B4044C0F
:104FF0000D46134601462A46206830BCFFF7DCBF49
:10500000D005002070B5084C06460025084611461C
:105010001A462560FCF766FD431C00D070BD23686E
:10502000002BFBD0336070BD08120020F0B5274C78
:105030002668D6F8484185B00746002C41D06568FF
:105040001F2D1EDD224818B94FF0FF3005B0F0BD0E
:105050004FF4C870039102920193FFF701FE039988
:10506000029A019B04460028EED0D6F848512560EC
:10507000002060600546C6F84841C4F88801C4F8BD
:105080008C013FB9AB1C00200135656044F823104A
:1050900005B0F0BD04EB85004FF0010CC0F888208E
:1050A000D4F888610CFA05F21643022FC4F888611F
:1050B000C0F80831E6D1D4F88C311A43C4F88C21F9
:1050C000E0E706F5A674C6F84841B8E794A40008DE
:1050D000614C0008024B13B10248FFF7EDBB70476B
:1050E00000000000914B00082DE9F04F384B1B6881
:1050F00085B003F5A472019302900F460392019BC1
:10510000D3F84881B8F1000F1CD0DDF80CB04FF097
:105110000109DA46D8F804305C1E11D408F188057C
:105120009E1C05EB830508EB860677B1EB6FBB424F
:105130000BD0013C631CA5F10405A6F10406F4D1D3
:10514000244A7ABB05B0BDE8F08FD8F8042056F8A1
:10515000043C013AA24216BF0022C8F8044046F8B7
:10516000042C002BE5D0D8F88811D8F804B009FA3F
:1051700004F20A4210D0D8F88C110A420ED10298DB
:1051800055F8041C9847D8F804305B45B7D1DAF8D5
:1051900000304345CDD0B2E79847F4E755F8040C0A
:1051A0009847F0E7D8F804306BB9D8F8003063B10D
:1051B0004046CAF80030FFF75BFDDAF80080B8F12E
:1051C000000FA7D1BEE7D8F80030C2469846F6E7F0
:1051D00094A40008714C000838B5074C002305461C
:1051E00008462360FCF768FC431C00D038BD2368E8
:1051F000002BFBD02B6038BD0812002070B50C4688
:10520000054631B110B1836B002B2FD0B4F90C30AF
:105210000BB9002070BD28462146FFF763FBE36A07
:10522000064633B12846E16998470028B8BF4FF0D9
:10523000FF36A3891B061CD4216B41B104F1400346
:10524000994202D0284603F0DDFD00232363616C00
:1052500021B1284603F0D6FD00236364FFF794FCD8
:105260000023A381FFF792FC304670BDFFF712FCCC
:10527000CCE72846216903F0C5FDDDE7004870470B
:10528000D405002070B5084C064600250846114696
:105290001A462560FCF770FC431C00D070BD2368E3
:1052A000002BFBD0336070BD0812002070B5084C95
:1052B00006460025084611461A462560FCF73AFCCA
:1052C000431C00D070BD2368002BFBD0336070BD41
:1052D0000812002031F0004310B408D00F4AA3F5A3
:1052E000801494420AD804205DF8044B70470028CB
:1052F0000CBF022003205DF8044B7047B3F5801FFC
:1053000001D20320F7E7064A934201D00020F2E7DA
:10531000D0F1010038BF0020EDE700BFFFFFDF7FC5
:105320000000F07F000000002DE9F04FC9B0914669
:1053300010930C910D90FFF7A1FF00681590FFF7F7
:105340000DFE0C9C1890A3891A0603D52369002B27
:1053500001F091809FED967B8DED167B002338AC9C
:10536000119308942D932C931A9319930E932B94C5
:10537000264699F80030002B00F0F880252B00F02D
:10538000F58009F1010201E0252B04D01446013219
:105390002378002BF8D1C9EB04057DB12C9B2D9A05
:1053A000C6F8009001332A44072B75602D922C9388
:1053B00000F3C28008360E9828440E902378002B04
:1053C00000F0C280002394F801808DF88F301A46D7
:1053D0000F93099304F101094FF0FF340A9409F186
:1053E0000109A8F12003582B00F2CC83DFE813F069
:1053F0006F02CA03CA037602CA03CA03CA03CA03F6
:10540000CA03CA0319036903CA039D00C000CA0383
:105410007D02840284028402840284028402840263
:1054200084028402CA03CA03CA03CA03CA03CA03A2
:10543000CA03CA03CA03CA0395027403CA037403E6
:10544000CA03CA03CA03CA036D03CA03CA037800A6
:10545000CA03CA03CA03CA03CA035900CA03CA0358
:10546000B402CA03CA03CA03CA03CA03CA03CA03EB
:10547000CA03CA03CA033C034D03740374037403D1
:1054800004034D03CA03CA030D03CA03CA027C0006
:105490002603AA03CA03DE02CA035F00CA03CA03C3
:1054A000E400DDF824C04CF0100CCDF824C0099CB9
:1054B000A20600F15B83099CE30600F1E585DDF8B7
:1054C00024C01CF0400F00F0DF85DDF840C0BCF8C0
:1054D00000400CF1040C00250123CDF840C092E0FF
:1054E000099D45F010050995DDF824C01CF0200346
:1054F00040F03183DDF824C01CF0100240F0BD857F
:10550000DDF824C01CF0400300F0B785DDF840C092
:10551000BCF800400CF1040C13460025CDF840C047
:1055200071E00F9C109364420F94099D45F00405AF
:10553000099599F8008052E70D980C992BAA02F072
:105540002DFC40B938AE36E72D9B23B10D980C9950
:105550002BAA02F023FC0C9C0E98A38913F0400F99
:1055600018BF4FF0FF3049B0BDE8F08F4C4625E73B
:1055700099F80080B8F12A0F09F1010001F01D81AE
:10558000A8F13003092B98BF002101F27C8010F8AC
:10559000018B01EB810103EB4101A8F13003092BE1
:1055A000F5D941EAE1710A9181461AE7AFF300802B
:1055B0000000000000000000099DA14C1A94AF06F5
:1055C0008DF88F2040F1D081DDF840C00CF1070349
:1055D00023F0070303F108041094D3E90045DDF834
:1055E00024C01CF0010F00F0638454EA050000F0B1
:1055F0005F8430234CF0020C8DF890308DF8918050
:10560000CDF824C002234FF0000A8DF88FA00A992C
:10561000002905DBDDF824C02CF0800CCDF824C077
:1056200054EA050040F0C6820A99002940F0C2827F
:10563000002B40F03984DDF824C01CF0010F00F08D
:10564000338448AF302307F8413D089DEC1BDDF85B
:1056500028C000256445A8BFA446CDF82CC01495E9
:10566000BAF1000F02D00B9D01350B95099B13F089
:105670000203129302D00B9D02350B95DDF824C076
:105680001CF0840CCDF84CC040F091820F9DDDF8E9
:105690002CC0CCEB050BBBF1000F40F38882BBF1B3
:1056A000100F2D992C9ADFF8A0A12CDD1B97304606
:1056B00057461025CA460C9EA1460D9C06E0ABF14C
:1056C000100BBBF1100F00F1080017DD0132103193
:1056D000072A2D912C9207604560F0DD2046314667
:1056E0002BAA02F05BFB00287FF435AFABF1100B67
:1056F000BBF1100F2D992C9A38A8E7DC4C46D14607
:10570000BA461B9F064601320BEB010C072ACDF867
:10571000B4C02C9286E8000C00F31B849DF88FA087
:105720000836BAF1000F0FD02C9B01330CF1010C9D
:105730000DF18F010122072BCDF8B4C02C9386E820
:10574000060000F399830836129B73B12C9B01333A
:105750000CF1020C24A90222072BCDF8B4C02C9323
:1057600086E8060000F394830836139D802D00F030
:10577000CB820A9DC4EB050ABAF1000F3BDDBAF1FA
:10578000100F2C9B2F4D2BDD0A9432464FF0100B3F
:105790002E4661460D9C0C9D06E0AAF1100ABAF156
:1057A000100F02F1080217DD01331031072B2D9184
:1057B0002C9382E84008F0DD204629462BAA02F00F
:1057C000EDFA00287FF4C7AEAAF1100ABAF1100F63
:1057D0002D992C9B38AAE7DC0A9C35468C46164648
:1057E0000133D444072BCDF8B4C02C9386E82004B1
:1057F00000F336830836099DED0500F125822C9BC8
:1058000037600133A444072BCDF8B4C074602C93E7
:1058100000F310830836099C630748D50F9D0B9849
:105820002C1A002C43DD102C2C9BDFF81CA02ADD49
:10583000574610256246DDF83080DDF834A00AE0D6
:10584000D8A40008F8A40008A4A40008103C102C58
:1058500006F1080615DD01331032072B2D922C932B
:1058600037607560F2DD504641462BAA02F096FA89
:1058700000287FF470AE103C102C2D9A2C9B38AE73
:10588000E9DC9446BA460133A444072BCDF8B4C0F2
:105890002C93C6F800A0746009DD0D980C992BAA12
:1058A00002F07CFA00287FF456AEDDF8B4C00E9CFE
:1058B0000B980F9DA842ACBF241864190E94BCF13C
:1058C000000F40F0C38200232C9338AE51E599F8C5
:1058D0000080002A7FF483AD202280E5099D45F0F9
:1058E0000105099599F8008079E5099D45F0800545
:1058F000099599F8008072E50024A8F130030F940F
:10590000214619F8018B01EB810103EB4101A8F15C
:105910003003092BF5D90F9163E5DDF824C08DF82C
:105920008F204CF0100CCDF824C0099CA30640F148
:10593000B280109DE91D21F00701D1E90023083153
:10594000109114461D46002A73F10000C0F28B83AB
:105950009DF88FA001235AE6099DB74C8DF88F2042
:10596000AF061A943FF530AE099DED0640F15E8416
:10597000DDF840C0DCF800400CF1040CCDF840C06C
:1059800000252CE6DDF824C08DF88F201CF0200FB8
:1059900000F03E84109C21680E9CE5172B46109D5C
:1059A000224604351095C1E90023E2E4109C2768E3
:1059B0004FF0000A8DF88FA0251D002F00F0F5850F
:1059C0000A9C002C3846C0F2A78551462246FFF7B4
:1059D00057F9002800F01F860A9C1095C01BA042B2
:1059E000B8BF044624EAE475CDF828A0CDF850A04D
:1059F0000B959DF88FA033E6DDF824C04CF0400CE9
:105A0000CDF824C099F80080E9E499F80080B8F155
:105A10006C0F4B4600F08D84099D45F010050995EB
:105A2000DDE4109C109D24680F94002C05F1040304
:105A3000FFF677AD109399F80080D0E4109ADDF866
:105A400024C07E4814681A903023151D4FF0780842
:105A50004CF0020C8DF890301095CDF824C0002544
:105A60008DF891800223CEE5109A109D12688DF872
:105A7000B8200023012404359A460B9410958DF824
:105A80008F300A9314932EAFF0E5099C8DF88F2088
:105A9000A3063FF54EAFDDF824C01CF0100F40F018
:105AA000D282099C670640F1CE82DDF840C0BCF985
:105AB00000400CF1040CE51722462B46CDF840C0FF
:105AC00041E799F800802B2289E4099D45F00805FB
:105AD000099599F8008082E4099C8DF88F202507AC
